:020000040000FA
:020000000528D1
:040002000034003492
:08000800322883160317890159
:1000100088120813881383160313F0308600091022
:1000200089100911880183160313811383160313A2
:10003000F030960083120313003086008801AB0174
:10004000A601A701A801A901AC01831203130B109B
:1000500006088B158B179220A60A11302602031D65
:100060002B282B28A0000308A1000B1C8E28C320DE
:10007000AB010E308600C3203D28061E5028AB0A77
:10008000861E5528AB0A061F5A28AB0A861F5F2812
:10009000AB0A4A28861D7D280314860DC3203D28FF
:1000A000C320C320061E64287D28C320C320861ECB
:1000B00064287D28C320C320061F64287D28C32010
:1000C000C320861F64287D28AC0A04302C02031943
:1000D0007D2803302C020319722802302C020319E8
:1000E00077287A282B08A7008B118B137D282B08E3
:1000F000A8007D282B08A9007D280F30860000006D
:100100000000F0300605F03C031D8128AB010030F3
:1001100086000000000006080B108E2821088300CE
:10012000200809000914891009112708A82088004F
:10013000B9200910891409112808A8208800B920BD
:100140000910891009152908A8208800B92008007D
:1001500082073F3406345B344F3466346D347D346B
:1001600007347F346F3477347C3439345E347934F7
:1001700071345030A2000830A3000000A30BBD284A
:10018000A20BBB2808005030A4005030A50000008E
:0A019000A50BC728A40BC528080022
:02400E00F12F90
:00000001FF
