:020000040000FA
:020000000628D0
:040002000034003492
:06000A0009008316031734
:1000100089018812081388130313860109108910B7
:100020000911831286018901A601A701A801A50172
:100030001E28A70A0A30270203194428A50109101F
:10004000891409152608502086005B2009148910A0
:1000500009152708502086005B200914891409110E
:100060002808502086005B20A50A01302502031DC8
:100070001F280130280203194728A60A0A30260241
:10008000031D1E28A6011928A701A80A1E28091069
:10009000891009113F3086006520860165204728B8
:1000A00082073F3406345B344F3466346D347D341C
:1000B00007347F346F34FA30A3001430A4000000FA
:1000C000A40B5F28A30B5D2808004B30A000C830AC
:1000D000A1000A30A200A20B6B28A10B6928A00B7B
:0400E0006728080085
:02400E00F12F90
:00000001FF
