:020000040000FA
:020000000528D1
:040002000034003492
:06000A00831603178901B3
:100010008812081388130313860109108910091127
:10002000831286018901A601A701A801A5011D2847
:10003000A70A0A30270203192C28A5014320A50A84
:1000400011302502031D1E285920A60A0A30260257
:10005000031D1D28A6011828A701A80A1D28091498
:10006000891409153F3086006820860168202F28F2
:1000700082073F3406345B344F3466346D347D344C
:1000800007347F346F340914891009112608382089
:1000900086005E200910891409112708382086007F
:1000A0005E200910891009152808382086005E2076
:1000B00008002808013C03192F2808005030A3002D
:1000C0000830A4000000A40B6228A30B60280800DD
:1000D0004B30A000C830A1000A30A200A20B6E284D
:0A00E000A10B6C28A00B6A28080091
:02400E00F12F90
:00000001FF
