:020000040000FA
:020000000528D1
:040002000034003492
:0800080068288312031385012F
:100010008701890186018801AA01A601A701A8011B
:10002000B0015A30AB0083160317890183160313FE
:10003000F03086008316031788120813881383167E
:1000400003130910891009118316031708110812E8
:100050008316031305110512851283160313071067
:10006000871007118711071383160313880183165E
:100070000313811383160313F030960083160313C2
:100080009816181218158316031787118316031371
:100090001930990083120313981783160317081455
:1000A00083160313051483160313023083120313FC
:1000B00081309F00831203130B1006088B158B17DA
:1000C000CB20D8200A2123216521FF2000006028B1
:1000D000A0000308A1000B1CB428AA010E30860062
:1000E000C2207228061E8528AA0A861E8A28AA0A05
:1000F000061F8F28AA0A861F9428AA0A7F28861D11
:10010000A3280314860DC2207228C220C220061E16
:100110009928A328C220C220861E9928A328C2207D
:10012000C220061F9928A328C220C220861F992812
:10013000A3282A080F39AC0001308A002C089E2120
:10014000AB008A01A3280F30860000000000F030C9
:100150000605F03C031DA728AA0100308600000018
:10016000000006080B10B4282108830020080900AD
:100170005030A2000830A3000000A30BBC28A20B43
:10018000BA2808005030A4005030A5000000A50B8C
:10019000C628A40BC4283230AC00AC0BCD28831287
:1001A00003139F149F18D228831203131E080800FC
:1001B000831203131E08AC002C08F039AE00AE0EFB
:1001C0002C080F39AF0001308A002E089E21B000A4
:1001D000AE0A2E089E21AC00AE032E089E21AC0272
:1001E000AD01AF080319F8282C08AD07AF03F128BB
:1001F0002D0E0F3983120313B0078A0108008316EE
:100200000313981CFF28831203133008831203136F
:1002100099000800831203132B08AC00A801A70162
:100220006430AC02031C1629A80A10296430AC07FC
:100230000A30AC02031C1E29A70A18290A30AC0791
:100240002C08A6000800831203130512051183125F
:100250000313071087100711871103102B08AC0038
:100260008312031330082C02031C051503100A30F7
:10027000AC028312031330082C02031C0516031072
:100280000A30AC028312031330082C02031C07143B
:1002900003100A30AC028312031330082C02031C33
:1002A000871403100A30AC028312031330082C02A7
:1002B000031C071503100A30AC0283120313300825
:1002C0002C02031C87150310080083120313091066
:1002D0008910091183120313851601308A0026083C
:1002E000AF218A018800B8208312031309108910F6
:1002F000091583120313851201308A002708AF21E4
:100300008A018800B8208312031309148910091187
:1003100083120313851201308A002808AF218A0155
:100320008800B8208312031309108914091183125D
:1003300003138512DE308800B820080082073234AB
:1003400036343A343E34423446344A344E345234ED
:1003500056345A345E34623469346E3473348207EE
:100360003F3406345B344F3466346D347D340734A7
:040370007F346F3433
:02400E00F12F90
:00000001FF
