:020000040000FA
:020000000528D1
:040002000034003492
:080008006B288312031385012C
:100010008701890186018801AA01A601A701A8011B
:10002000B0017230AB0083160317890183160313E6
:10003000F03086008316031788120813881383167E
:1000400003130910891009118316031708110812E8
:100050008316031305110512851283160313071067
:10006000871007118711071383160313880183165E
:100070000313811383160313F030960083160313C2
:100080009816181218158316031787118316031371
:100090001930990083120313981783160317081455
:1000A0008815831603130514851583160313103062
:1000B0009F008312031381309F00831203130B10E0
:1000C00006088B158B17CE20DB200D2126216821F9
:1000D000022100006328A0000308A1000B1CB72820
:1000E000AA010E308600C5207528061E8828AA0A97
:1000F000861E8D28AA0A061F9228AA0A861F9728FC
:10010000AA0A8228861DA6280314860DC5207528F4
:10011000C520C520061E9C28A628C520C520861EF1
:100120009C28A628C520C520061F9C28A628C520D7
:10013000C520861F9C28A6282A080F39AC0001304C
:100140008A002C08A121AB008A01A6280F30860066
:1001500000000000F0300605F03C031DAA28AA01AB
:10016000003086000000000006080B10B7282108A8
:100170008300200809005030A2000830A3000000CE
:10018000A30BBF28A20BBD2808005030A40050309C
:10019000A5000000A50BC928A40BC7283230AC006D
:1001A000AC0BD028831203139F149F18D5288312F9
:1001B00003131E080800831203131E08AC002C084A
:1001C000F039AE00AE0E2C080F39AF0001308A00B6
:1001D0002E08A121B000AE0A2E08A121AC00AE036A
:1001E0002E08A121AC02AD01AF080319FB282C0891
:1001F000AD07AF03F4282D0E0F3983120313B00798
:100200008A01080083160313981C02298312031322
:1002100030088312031399000800831203132B087C
:10022000AC00A801A7016430AC02031C1929A80A7C
:1002300013296430AC070A30AC02031C2129A70A39
:100240001B290A30AC072C08A600080083120313F0
:100250000512051183120313071087100711871168
:1002600003102B08AC008312031330082C02031C6C
:10027000051503100F30AC028312031330082C0253
:10028000031C051603100F30AC0283120313300851
:100290002C02031C071403100A30AC028312031350
:1002A00030082C02031C871403100A30AC0283129E
:1002B000031330082C02031C071503100A30AC028C
:1002C0008312031330082C02031C87150310080047
:1002D0008312031309108910091183120313851661
:1002E00001308A002608B2218A018800BB208312CF
:1002F00003130910891009158312031385120130A5
:100300008A002708B2218A018800BB2083120313C8
:1003100009148910091183120313851201308A0010
:100320002808B2218A018800BB2083120313091018
:1003300089140911831203138512DE308800BB2053
:10034000080082073C344034443446344A344E3446
:100350005034543458345A345E346234643468341B
:100360006C34723482073F3406345B344F34663465
:0A0370006D347D3407347F346F34A0
:02400E00F12F90
:00000001FF
