:020000040000FA
:020000000528D1
:040002000034003492
:08000800542883160317881227
:100010000813881383160313091089100911831616
:100020000317890183160313F03086008316031724
:100030000811081283160313051105128512831681
:100040000313071087100711871183160313880104
:1000500083160313811383160313F0309600831263
:10006000031385018701890186018801AA01A60180
:10007000A701A801C830AB00831603170814831624
:100080000313051483160313003083120313813006
:100090009F00831203130B1006088B158B17A520E6
:1000A000B020C92000004F28A0000308A1000B1CAD
:1000B000A1284A21AA010E3086004A215F28061E87
:1000C0007228AA0A861E7728AA0A061F7C28AA0A6E
:1000D000861F8128AA0A6C28861D90280314860D85
:1000E0004A215F284A214A21061E862890284A2153
:1000F0004A21861E862890284A214A21061F8628E2
:1001000090284A214A21861F862890282A080F39DC
:10011000AC0001308A002C081E21AB008A01902817
:100120000F30860000000000F0300605F03C031D93
:100130009428AA01003086000000000006080B1079
:10014000A12821088300200809003230AC00AC0B44
:10015000A7289F149F18AA28831203131E080800BB
:10016000831203131E08AC00A801A7016430AC027F
:10017000031CBC28A80AB6286430AC070A30AC02BD
:10018000031CC428A70ABE280A30AC072C08A60006
:1001900008008312031305120511831203130710BD
:1001A00087100711871103102B08AC001E082C02C2
:1001B000031C051603101430AC021E082C02031C8D
:1001C000071403101430AC021E082C02031C871401
:1001D00003101430AC021E082C02031C0715031078
:1001E0001430AC021E082C02031C871503101430B7
:1001F000AC021E082C02031C051503100800831214
:10020000031309148910091185122608880040215A
:100210000910891409118512270888004021091046
:1002200089100911851628088800402109108910B5
:1002300009158512DE3088004021080001308A004F
:100240002C08820778348034883490349834A03471
:10025000A834B034C034C834D034D834E034E834AE
:10026000F034FA3401308A0082073F3406345B34BC
:100270004F3466346D347D3407347F346F34080076
:100280005030A2000830A3000000A30B4429A20BA9
:10029000422908005030A4005030A5000000A50BF2
:0802A0004E29A40B4C290800B3
:02400E00F12F90
:00000001FF
