:020000040000FA
:020000000528D1
:040002000034003492
:08000800662883120313850131
:100010008701890186018801AA01A601A701A8011B
:10002000C830AB0083160317890183160313F03021
:100030008600831603178812081388138316031388
:100040000910891009118316031708110812831665
:100050000313051105128512831603130710871069
:1000600007118711071383160313880183160313DF
:10007000811383160313F03096008316031398162A
:1000800018121815831603178711831603131930D6
:100090009900831203139817831603170814831605
:1000A00003130514831603130030831203138130E6
:1000B0009F00831203130B1006088B158B17C920A2
:1000C000E120FA203C21D62000005F28A000030890
:1000D000A1000B1CB228AA010E308600C020702897
:1000E000061E8328AA0A861E8828AA0A061F8D28AB
:1000F000AA0A861F9228AA0A7D28861DA128031411
:10010000860DC0207028C020C020061E9728A12878
:10011000C020C020861E9728A128C020C020061F0E
:100120009728A128C020C020861F9728A1282A0828
:100130000F39AC0001308A002C087521AB008A0110
:10014000A1280F30860000000000F0300605F03CCA
:10015000031DA528AA010030860000000000060843
:100160000B10B22821088300200809005030A2009B
:100170000830A3000000A30BBA28A20BB82808007F
:100180005030A4005030A5000000A50BC428A40BDB
:10019000C2283230AC00AC0BCB28831203139F145F
:1001A0009F18D028831203131E0808008316031318
:1001B000981CD628831203131E0883120313990078
:1001C0000800831203132B08AC00A801A7016430B8
:1001D000AC02031CED28A80AE7286430AC070A30FB
:1001E000AC02031CF528A70AEF280A30AC072C083C
:1001F000A6000800831203130512051183120313CE
:10020000071087100711871103102B08AC00831209
:1002100003131E082C02031C051503101430AC0236
:10022000831203131E082C02031C0516031014303E
:10023000AC02831203131E082C02031C07140310C4
:100240001430AC02831203131E082C02031C871403
:1002500003101430AC02831203131E082C02031C7B
:10026000071503101430AC02831203131E082C026E
:10027000031C87150310080083120313091089104B
:10028000091183120313851601308A00260886217E
:100290008A018800B62083120313091089100915FA
:1002A00083120313851201308A00270886218A01F0
:1002B0008800B620831203130914891009118312D0
:1002C0000313851201308A00280886218A018800DC
:1002D000B620831203130910891409118312031322
:1002E0008512DE308800B62008008207783480341A
:1002F000883490349834A034A834B034C034C8342E
:10030000D034D834E034E834F034FA3482073F345F
:1003100006345B344F3466346D347D3407347F34B7
:020320006F3438
:02400E00F12F90
:00000001FF
